:100000000C944E060C947F060C947F060C947F068D
:100010000C947F060C947F060C947F060C947F064C
:100020000C947F060C947F060C947F060C947F063C
:100030000C947F060C9496200C947F060C947F06FB
:100040000C947F060C94E0210C947F060C947F06A0
:100050000C947F060C947F060C947F060C944C2025
:100060000C947F060C9420210C94F6200C947F06AF
:100070000C947F060C947F060C947F060C947F06EC
:100080000C94B2210C947F060C947F060C947F068E
:100090000C947F060C947F060C947F060C940E2221
:1000A0000C947F060C947F060C9484210C947F069C
:1000B0000C947F060C947F060C947F060C945621BA
:1000C0000C947F060C947F060C947F060C947F069C
:1000D0000C947F060C947F060C947F060C947F068C
:1000E0000C947F060C943D070C94F50F0C94BC14F3
:1000F0000C94880C0C94E8150C94030C0C94570B7E
:100100000C94AA0E0C94F30E0C9432230C943C1510
:100110000C944F160C943B0C0C9462070C94D41462
:100120000C9478160C94D20B0C9443070C94AC14DA
:100130000C94A5160C9482070C94F50B0C9466078E
:100140000C9401130C94F5130C947E070C945E161A
:100150000C94E10B0C942F120C94E6060C94D8131B
:100160000C94C8140C9474070C94191A0C94A50BD5
:100170000C9478070C944F070C945C070C946F1A3E
:100180000C94580B0C9470070C947D070C944B073F
:100190000C9471160C946A070C9447070C945B2E10
:1001A0000C9458070C9460130C943A0F0C9452075B
:1001B00000000000003E5B4F5B3E3E6B4F6B3E1C01
:1001C0003E7C3E1C183C7E3C181C577D571C1C5E18
:1001D0007F5E1C00183C1800FFE7C3E7FF001824EF
:1001E0001800FFE7DBE7FF30483A060E2629792999
:1001F00026407F050507407F05253F5A3CE73C5ACE
:100200007F3E1C1C08081C1C3E7F14227F22145FAA
:100210005F005F5F06097F017F006689956A606005
:1002200060606094A2FFA29408047E040810207EFF
:10023000201008082A1C08081C2A08081E10101084
:10024000100C1E0C1E0C30383E3830060E3E0E06CA
:10025000000000000000005F00000007000700141D
:100260007F147F14242A7F2A1223130864623649DC
:100270005620500008070300001C224100004122C4
:100280001C002A1C7F1C2A08083E080800807030C9
:100290000008080808080000606000201008040238
:1002A0003E5149453E00427F40007249494946213E
:1002B00041494D331814127F1027454545393C4AB2
:1002C00049493141211109073649494936464949C9
:1002D000291E000014000000403400000008142211
:1002E000411414141414004122140802015909067F
:1002F0003E415D594E7C1211127C7F494949363E80
:10030000414141227F4141413E7F494949417F0965
:100310000909013E414151737F0808087F00417F70
:1003200041002040413F017F081422417F4040406E
:10033000407F021C027F7F0408107F3E4141413E06
:100340007F090909063E4151215E7F091929462688
:100350004949493203017F01033F4040403F1F208C
:1003600040201F3F4038403F631408146303047863
:1003700004036159494D43007F4141410204081083
:1003800020004141417F04020102044040404040BE
:10039000000307080020545478407F28444438382C
:1003A00044444428384444287F385454541800089E
:1003B0007E090218A4A49C787F0804047800447D78
:1003C00040002040403D007F1028440000417F4015
:1003D000007C047804787C08040478384444443869
:1003E000FC1824241818242418FC7C080404084849
:1003F0005454542404043F44243C4040207C1C209A
:1004000040201C3C4030403C44281028444C9090F4
:10041000907C4464544C440008364100000077004E
:1004200000004136080002010204023C2623263C5B
:100430001EA1A161123A4040207A385454555921E6
:1004400055557941225454784221555478402054CE
:100450005579400C1E52721239555555593954541C
:10046000545939555454580000457C410002457D8B
:10047000420001457C407D1211127DF0282528F0B4
:100480007C545545002054547C547C0A097F4932E1
:10049000494949323A4444443A324A4848303A4158
:1004A00041217A3A42402078009DA0A07D3D424201
:1004B000423D3D4040403D3C24FF2424487E49438A
:1004C000662B2FFC2F2BFF0929F620C0887E0903FD
:1004D00020545479410000447D413048484A323824
:1004E0004040227A007A0A0A727D0D19317D262950
:1004F000292F28262929292630484D402038080848
:10050000080808080808382F10C8ACBA2F1028347B
:10051000FA00007B000008142A142222142A14086E
:100520005500550055AA55AA55AAFF55FF55FF007D
:100530000000FF00101010FF00141414FF00101032
:10054000FF00FF1010F010F0141414FC001414F746
:1005500000FF0000FF00FF1414F404FC1414171033
:100560001F10101F101F1414141F00101010F00083
:100570000000001F101010101F10101010F01000BD
:100580000000FF101010101010101010FF100000CD
:1005900000FF140000FF00FF00001F10170000FC08
:1005A00004F414141710171414F404F40000FF00DA
:1005B000F714141414141414F700F7141414171463
:1005C00010101F101F141414F4141010F010F00069
:1005D000001F101F0000001F14000000FC1400008A
:1005E000F010F01010FF10FF141414FF141010106E
:1005F0001F00000000F010FFFFFFFFFFF0F0F0F021
:10060000F0FFFFFF0000000000FFFF0F0F0F0F0FB4
:100610003844443844FC4A4A4A347E020206060200
:100620007E027E0263554941633844443C04407E67
:10063000201E2006027E020299A5E7A5991C2A49E0
:100640002A1C4C7201724C304A4D4D30304878486B
:1006500030BC625A463D3E494949007E0101017E57
:100660002A2A2A2A2A44445F444440514A444040AA
:10067000444A51400000FF0103E080FF00000808E9
:100680006B6B083612362436060F090F0600001869
:10069000180000001010003040FF0101001F010190
:1006A0001E00191D1712003C3C3C3C0000000000DD
:1006B000000103070F1F3F7F0080C0E0F0F8FCFE41
:1006C000DB40A4A62EAF2000A1C8D300408DAED53C
:1006D00080A8000060000000000000000000000092
:1006E000000000E00000000000000000000000002A
:1006F0000001E00000000000000000000000000019
:1007000001F00000000000000000000000000003F5
:10071000F00000000000000000000000000007F0F2
:100720000000000000000000000000000007F800CA
:100730000000000000000000000000000FF80000B2
:100740000003C0007E000001E0007F0FF800000001
:1007500003C000FE000001E000FFEFF8000000030E
:10076000C000FE000001E000FFFFF800000003C031
:1007700000F00000000F007FFE7FC0000003C000FB
:10078000F00000000F003FFE7FF83FF1FBCFFCFEC2
:10079000F3BC3DEFE01FFE7FFF7FFBFFDFFEFEFFB0
:1007A000BC3DEFE01FC6FFFF7FFBFFDFFEFEFFBC8F
:1007B0003DEFE00FE3C7FE787BC3DE1EF0FFBC3DDC
:1007C000EF0007FF87FC787BC3DE1EF0F83C3DEFAF
:1007D0000001FFFFF0007BC3C01EF0F03C3DEF00C6
:1007E00001F37FE03FFBC3CFFEF0F03C3DEF0003A1
:1007F000E33F807FFBC3DFFEF0F03C3DEF0007E707
:100800003C00787BC3DE1EF0F03C3DEF0007FFBEEE
:1008100000787BC3DE1EF0F03C3DEF0007FFFE00DA
:10082000787BC3DE1EF0F03C3DEF000FFFFE007F43
:10083000FBFFDFFEF0F03FFDEFE00FFFFF007FFB6F
:10084000FFDFFEF0F03FFDEFE00FF9FF003E79F92A
:10085000CF9EF0F01F3DE7E01FF1FF000000000019
:10086000000000000000001F80FF007FFFFFFFFF6F
:10087000FFFFFFFFFFE01C007F007FFFFFFFFEB4D4
:100880006D888D18E000001F007FFFFFFFFE95AD13
:100890007DB577E000000F007FFFFFFFFEA5AD9D57
:1008A0008D19E0000006007FFFFFFFFEB5ADEDB53E
:1008B0007EE0000000000001800000000000000059
:1008C0000000038000000000000000000007C000DE
:1008D000000000000000000007C000000000000051
:1008E0000000000FC00000000000000000001FE03A
:1008F0000000000000000000001FE00000000000F9
:10090000000000003FE00000000000000000003F89
:10091000F00000000000000000007FF00000000078
:100920000000001FF87FF0000000000000003FFE04
:100930007FF0000000000000003FFF7FF00000009B
:10094000000000001FFFFBE0000000000000000F9F
:10095000FFF9FFC00000000000000FFFF9FFF800E2
:10096000000000000007FFF1FFFF00000000000092
:1009700003FC73FFFF80000000000001FE3FFFFF4B
:1009800080000000000000FF1E0FFF0000000000BC
:1009900000007FFE1FFC000000000000003FFFFF82
:1009A000F8000000000000000FDFFFE00000000082
:1009B0000000001F19FFC0000000000000003F3CC5
:1009C000FF00000000000000007E7CF80000000036
:1009D000000000007FFE7C0000000000000000FF1F
:1009E000FFFC0000000000000000FFFFFE00000010
:1009F0000000000000FFFFFE0000000000000001FA
:100A0000FFEFFE0000000000000001FFCFFE00002D
:100A1000000000000003FF07FE00000000000000CF
:100A200003FC07FE0000000000000003F003FE00CE
:100A3000000000000000018000FE00000000000037
:100A4000000000007E000000000000000000003EEA
:100A5000000000000000000000000C00000000008A
:100A600000078000FC000003C0000000078001FCBC
:100A7000000003C0000000078001FC000003C0006C
:100A80000000078001E00000001E00000007800158
:100A9000E00000001E007FE3F79FF9FDE7787BDFB1
:100AA000C0FFF7FFBFFDFDFF787BDFC0FFF7FFBF93
:100AB000FDFDFF787BDFC0F0F787BC3DE1FF787B71
:100AC000DE00F0F787BC3DE1F0787BDE0000F787C1
:100AD000803DE1E0787BDE007FF7879FFDE1E078F5
:100AE0007BDE00FFF787BFFDE1E0787BDE00F0F7FB
:100AF00087BC3DE1E0787BDE00F0F787BC3DE1E0BC
:100B0000787BDE00F0F787BC3DE1E0787BDE00FF1C
:100B1000F7FFBFFDE1E07FFBDFC0FFF7FFBFFDE1B7
:100B2000E07FFBDFC07CF3F39F3DE1E03E7BCFC085
:100B30000000000000000000000000FFFFFFFFFFBA
:100B4000FFFFFFFFFFC0FFFFFFFFFD68DB111A3152
:100B5000C0FFFFFFFFFD2B5AFB6AEFC0FFFFFFFF47
:100B6000FD4B5B3B1A33C0FFFFFFFFFD6B5BDB6A96
:100B7000FDC000002100240027002A002D003000C5
:100B8000330001010000040107010A0100000A0B03
:100B900002090C0D0E08070304010000000000000C
:100BA0000000000000000000000000000000000045
:100BB0000000000000000000121110000000000002
:100BC0000000000000000000000000000000000025
:100BD0000000000020002300260029002C002F0028
:100BE0003200000100000301060109012200FF217B
:100BF00000002200250028002B002E0031003400C8
:100C000002010000050108010B01020505050507A9
:100C10000508080808020202020A0A080804040477
:100C200004010101010101010103030303030303A3
:100C300003040707070C0C0C0C0C0C0C0C02020232
:100C40000206060606060606060B0B0B0B0B0B0B25
:100C50000B010210202008081020401020408002C4
:100C600001020108040201010204081020408080F2
:100C70004020100804020180040201804020100876
:100C8000040201080402010102040810204080014E
:100C9000020408102040800032235B2E11241FBE66
:100CA000CFEFD1E2DEBFCDBF00E00CBF13E0A0E08C
:100CB000B2E0E0ECF7E600E00BBF02C007900D9257
:100CC000A43FB107D9F726E0A4EFB3E001C01D921D
:100CD000AD3CB207E1F716E0CDE4D6E000E006C097
:100CE00021970109802FFE010E947131CC34D10778
:100CF00080E00807A9F70E9432240C94CE330C94AC
:100D000000008F929F92AF92BF92FF920F931F931A
:100D1000CF93DF93F090B3062FE22F1508F44CC069
:100D20002091B50608E512E0021B110927FD139575
:100D3000000F111F000F111F2091B406C8E8D0E06A
:100D4000C21BD10927FDD395CC0FDD1FCC0FDD1FB2
:100D50004E010D2E000CAA08BB089801012E000CB4
:100D6000440B550B281939094A095B09DC010E941B
:100D7000003024EB30E040E050E00E94D62F820E9D
:100D8000931EA41EB51E8C169D062CF0E80180163D
:100D900091060CF4E4012297CC0FDD1F2FB7F894D5
:100DA0008F2D90E0FC01EE0FFF1FE80FF91FEA52B4
:100DB000FA4FD283C1832FBFDF91CF911F910F9143
:100DC000FF90BF90AF909F908F9008950895CF921D
:100DD000DF92EF92FF92CF93DF93B091BD06A0E038
:100DE0008111AB2F8091BE0690E0880F991FAC0156
:100DF0004E52544FC090C306D090C406E090C50632
:100E0000F090C60630E020E0FA01C591D491E88167
:100E1000B90190E080E0EB23EA130AC02F5F3F4F57
:100E20006C157D058E059F0578F36FEF7FEFCB0185
:100E3000DF91CF91FF90EF90DF90CF900895815098
:100E4000823108F05AC0E82FF0E08827E55DF84FBE
:100E50008F4F0C9471314B074F073D0743074707EE
:100E60007D07520758075C07620766076A07700725
:100E700074077D0778077E078207809180008F774F
:100E8000809380000895809180008F7DF9CF8091BC
:100E90008000877FF5CF84B58F7784BD089584B5B2
:100EA0008F7DFBCF8091B0008F778093B000089545
:100EB0008091B0008F7DF9CF809190008F778093E3
:100EC00090000895809190008F7DF9CF80919000DF
:100ED000877FF5CF8091A0008F778093A000089541
:100EE0008091A0008F7DF9CF8091A000877FF5CF02
:100EF000809120018F7780932001089580912001B7
:100F00008F7DF9CF80912001877FF5CFCF93DF933D
:100F1000282F30E0F901E457F44F8491F901EF5A9A
:100F2000F34FD491F901E55FF34FC491CC23A1F0C5
:100F300081110E941F07EC2FF0E0EE0FFF1FEE5211
:100F4000F44FA591B491EC91ED2381E090E009F488
:100F500080E0DF91CF91089580E090E0FACF1F9379
:100F6000CF93DF93282F30E0F901E457F44F8491B9
:100F7000F901EF5AF34FD491F901E55FF34FC491B2
:100F8000CC23A9F0162F81110E941F07EC2FF0E04F
:100F9000EE0FFF1FE051F44FA591B4918FB7F89475
:100FA000EC91111108C0D095DE23DC938FBFDF9147
:100FB000CF911F910895DE2BF8CFCF93DF9390E070
:100FC000FC01EF5AF34F2491855F934FFC0184910C
:100FD0008823D1F090E0880F991FFC01EE58F44F60
:100FE000A591B491FC01E051F44FC591D4916230C8
:100FF00071F49FB7F8943C91822F809583238C9352
:10100000E8812E2B28839FBFDF91CF9108958FB762
:10101000F894EC912E2B2C938FBFF6CFCF92DF92CA
:10102000EF92FF92CF936C01809114028A3149F0C4
:101030008F3F09F455C0CF91FF90EF90DF90CF9094
:101040000895EAE0FCE0C491C7FDF5CF61E08AE1D4
:101050000E94DD07F12CE12CCC23D9F0960150E061
:1010600040E0C23009F010C17A0160E970ED83E020
:1010700090E00E94D62FBA01A9014150510961099F
:10108000710993E04F3F51056105710509F00CF4BA
:1010900095C168E478EE81E090E0A70196010E9496
:1010A000D62FBA01A901415051096109710994E093
:1010B000C11184C185B5887F836085BD47BD8FEF31
:1010C0009FEFDC018093350590933605A09337059B
:1010D000B093380580916E00826080936E00ABCF34
:1010E0008AE180931402EAE0FCE0C4918C2FCF3FA8
:1010F00009F4A1CFC23009F468C060F4CC2379F1BF
:10110000C13009F444C087FD96CF61E08AE10E94B6
:10111000DD07A4CFC43009F499C008F478C0C53005
:1011200091F7109220011092210180912101886095
:101130008093210180912101816080932101E5E26A
:10114000FCE0E491F0E0EE0FFF1FE051F44F8591D9
:101150009491EBE6FCE0E491E093190577CF14BCA1
:1011600015BC84B5826084BD85B5816085BDE5E22E
:10117000FCE0E491F0E0EE0FFF1FE051F44F8591A9
:101180009491EBE6FCE0E491E09320055FCF1092B0
:10119000800010928100809181008860809381009E
:1011A00080918100816080938100E5E2FCE0E49120
:1011B000F0E0EE0FFF1FE051F44F85919491EBE6C4
:1011C000FCE0E491E0931F0541CF1092B000109233
:1011D000B1008091B00082608093B0008091B10036
:1011E00081608093B100E5E2FCE0E491F0E0EE0F75
:1011F000FF1FE051F44F8591949190931E058093C9
:101200001D05EBE6FCE0E491E0931C051FCF109276
:1012100090001092910080919100886080939100DD
:1012200080919100816080939100E5E2FCE0E4917F
:10123000F0E0EE0FFF1FE051F44F85919491EBE643
:10124000FCE0E491E0931B05C3E000CF1092A00006
:101250001092A1008091A10088608093A1008091EC
:10126000A10081608093A100E5E2FCE0E491F0E060
:10127000EE0FFF1FE051F44F85919491EBE6FCE0F7
:10128000E491E0931A05E2CE60E072E18AE790E033
:101290000E94D62FBA01A901415051096109710973
:1012A000C130D9F480918100887F81608093810072
:1012B00050938900409388008FEF9FEFDC0180936B
:1012C000310590933205A0933305B0933405809196
:1012D0006F00826080936F00AECEC330D9F48091EE
:1012E0009100887F81608093910050939900409392
:1012F00098008FEF9FEFDC018093290590932A05DA
:10130000A0932B05B0932C0580917100826080938F
:10131000710091CEC430D9F48091A100887F8160A2
:101320008093A1005093A9004093A8008FEF9FEFF6
:10133000DC018093250590932605A0932705B093A3
:1013400028058091720082608093720074CEC5304F
:10135000D9F580912101887F81608093210150938C
:101360002901409328018FEF9FEFDC018093210535
:1013700090932205A0932305B093240580917300D8
:1013800082608093730057CEC43061F20CF4ADCF0D
:10139000C53029F350CE4093B3008FEF9FEFDC01AF
:1013A00080932D0590932E05A0932F05B0933005C3
:1013B000809170008260809370003DCE8091B1007A
:1013C000887F892B8093B100C23029F3ECF6CC23BF
:1013D00009F474CEC13009F02ECE6ACF3FB7F8942D
:1013E0008091110590911205A0911305B0911405FB
:1013F00026B5A89B05C02F3F19F00196A11DB11D70
:101400003FBFBA2FA92F982F8827BC01CD01620FAB
:10141000711D811D911D42E0660F771F881F991F66
:101420004A95D1F708958F929F92AF92BF92CF9233
:10143000DF92EF92FF924B015C010E94EE096B017B
:101440007C010E94EE096C197D098E099F09683E96
:10145000734081059105A8F321E0821A9108A10843
:10146000B10888EEC80E83E0D81EE11CF11C81147F
:101470009104A104B10429F7FF90EF90DF90CF9081
:10148000BF90AF909F908F9008952FB7F894609180
:101490000D0570910E0580910F05909110052FBFDD
:1014A0000895CF92DF92EF92FF920F931F93CF9305
:1014B000DF93CDB7DEB7C054D1400FB6F894DEBF8E
:1014C0000FBECDBF0E94450A0091BF061091C00615
:1014D0002091C1063091C2066B017C01C01AD10A6D
:1014E000E20AF30A97018601003D17402105310504
:1014F00090F48091C706C05CDE4F0FB6F894DEBF53
:101500000FBECDBFDF91CF911F910F91FF90EF9054
:10151000DF90CF9008956093BF067093C0068093CC
:10152000C1069093C2061092BA061092B9061092A4
:10153000B8061092B7061092B60662E08091BB061C
:101540000E94DD0761E070E080E090E00E94130AF5
:1015500061E08091BB060E94DD0760E08091BB06E0
:101560000E94AF078091BC068551823020F58BE246
:1015700091E10197F1F762E08091BB060E94DD07DF
:101580008091C80690E08230910538F0880F991F4D
:10159000880F991F05970197F1F7F89480E00E9452
:1015A000E7066F3F7F4F8F4F9F4F61F41092C70642
:1015B000789480E0A0CF64E170E080E090E00E9449
:1015C000130AD9CF81E00E94E7066F3F7F4F8F4F0C
:1015D0009F4F61F38E010F5F1F4F6E012FEBC21AF9
:1015E0002EEFD20A780180E00E94E706F7016083BF
:1015F00071838283938381E00E94E706F70164830D
:10160000758386839783F8E0EF0EF11CEC14FD04DC
:1016100051F7789430E020E0F801C080D180E2807A
:10162000F3804481558166817781FFEFCF16DF0615
:10163000EF06FF0631F04F3F8FEF58076807780736
:1016400019F41092C706B5CFF90183E0F595E79537
:101650008A95E1F7EA54F94F8081880FC416D506C0
:10166000E606F70610F180832F5F3F4F085F1F4F9C
:101670002832310589F64091BA062091B60680914C
:10168000B706280F3327331F8091B806280F311D66
:101690008091B906820F932F911D9927481719063B
:1016A00081F681E08093C70626CF8160DCCF089564
:1016B00008959091140289130DC0EAE0FCE0E491D2
:1016C0009FEF90931402E230E1F038F4EE2381F0C2
:1016D000E13089F060E00C94AF07E43049F110F19B
:1016E000E530C1F7909173009D7F90937300F2CF26
:1016F00010926E00EFCF90916F009D7F90936F00DE
:10170000E9CF909170009D7F9093700091E090934D
:10171000B0009091B100987F94609093B1001092C6
:10172000B300D8CF909171009D7F90937100D2CF7C
:10173000909172009D7F90937200CCCFDC01ED916F
:10174000FC910190F081E02D1994AF92BF92CF925D
:10175000DF92EF92FF920F931F93CF93DF936C0171
:101760007B018B01040F151FEB015E01AE18BF0852
:10177000C017D10759F06991D601ED91FC91019004
:10178000F081E02DC6011995892B79F7C501DF910C
:10179000CF911F910F91FF90EF90DF90CF90BF906E
:1017A000AF900895FC01538D448D252F30E0842F98
:1017B00090E0821B930B541710F0CF960895019779
:1017C0000895FC01918D828D981761F0A28DAE0F66
:1017D000BF2FB11D5D968C91928D9F5F9F73928FED
:1017E00090E008958FEF9FEF0895FC01918D828D19
:1017F000981731F0828DE80FF11D858D90E00895E6
:101800008FEF9FEF0895FC01918D228D892F90E03D
:10181000805C9F4F821B91098F739927089589E3FC
:1018200095E00E94030C21E0892B09F420E0822F2F
:101830000895FC01A48DA80FB92FB11DA35ABF4F65
:101840002C91848D90E001968F739927848FA689BF
:10185000B7892C93A089B1898C91837080648C9313
:10186000938D848D981306C00288F389E02D8081C2
:101870008F7D80830895EF92FF920F931F93CF93F4
:10188000DF93EC0181E0888F9B8D8C8D98131AC0BB
:10189000E889F989808185FF15C09FB7F894EE89A2
:1018A000FF896083E889F9898081837080648083FF
:1018B0009FBF81E090E0DF91CF911F910F91FF904A
:1018C000EF900895F62E0B8D10E00F5F1F4F0F73F2
:1018D0001127E02E8C8D8E110CC00FB607FCFACFAD
:1018E000E889F989808185FFF5CFCE010E94190C26
:1018F000F1CFEB8DEC0FFD2FF11DE35AFF4FF0827E
:101900009FB7F8940B8FEA89FB8980818062CFCFE3
:10191000CF93DF93EC01888D8823B9F0AA89BB8926
:10192000E889F9898C9185FD03C0808186FD0DC011
:101930000FB607FCF7CF8C9185FFF2CF808185FF32
:10194000EDCFCE010E94190CE9CFDF91CF91089520
:1019500080E090E0892B29F00E940F0C81110E94F9
:10196000000080E090E0892B49F080E090E0892B36
:1019700029F00E94000081110E94000080E090E0A8
:10198000892B49F080E090E0892B29F00E9400002B
:1019900081110E94000080E090E0892B49F080E0F6
:1019A00090E0892B29F00E94000081110C94000026
:1019B0000895AF92BF92CF92DF92EF92FF920F9372
:1019C0001F93CF93DF936B017A01EC01CC55DB4F72
:1019D00028813CE0389F8001399F100D1124A09090
:1019E0006606B12C27FF1FC0FB011182108288817F
:1019F0008F5F888388819801280F311D87FD3A9574
:101A0000F6012A153B051CF488818C30C4F18081D5
:101A10009181049680349C4908F473C0F60180815A
:101A20009181049670C088819801280F311D87FD2F
:101A30003A952A153B05DCF68881A801480F511D0F
:101A400087FD5A95FA01EE0FFF1FE40FF51FEA52CA
:101A5000FA4F808186FFCBCF8881F801E80FF11D16
:101A600087FDFA95CF01EE0FFF1FE80FF91FEA522D
:101A7000FA4F808160E08F730E94AF07B8CF8081FA
:101A800091812881A801420F511D27FD5A959A0185
:101A9000FA01EE0FFF1FE20FF31FEA52FA4F218106
:101AA0003281820F931FF70191838083888198018F
:101AB000280F311D87FD3A95F901EE0FFF1FE20F48
:101AC000F31FEA52FA4F808186FF22C08881080FF7
:101AD000111D87FD1A95F801EE0FFF1FE00FF11F92
:101AE000EA52FA4F808161E08F73DF91CF911F91AD
:101AF0000F91FF90EF90DF90CF90BF90AF900C943C
:101B0000AF0780E49CE9F701918380838FEF88839E
:101B1000DF91CF911F910F91FF90EF90DF90CF90C9
:101B2000BF90AF900895EF92FF920F931F93CF93C2
:101B3000DF93EC01EC80FD806E157F050CF070C02A
:101B400057FF04C0240F351F50E040E08E819F8175
:101B5000FA01E20FF31F8E179F071CF49C01241B50
:101B6000350B121613060CF05BC0922F842F86954E
:101B7000869586958E9DD0018F9DB00D11246A0F9C
:101B80007B1FAF8DB8A1A60FB71F477049F188E042
:101B9000841B482F682F70E0FB01E854F94FE49153
:101BA000281708F063C0621B71092FEF30E002C0F4
:101BB000359527956A95E2F7E2230130110539F052
:101BC000B0F10230110561F58C91E82702C08C91CB
:101BD000E82BEC93941720F12C813D81A20FB31FC9
:101BE000E92FE41BE83078F00230110521F58E2F43
:101BF0009C9190959C932C813D81A20FB31F88509E
:101C00008830B0F7E770EE2359F0F0E0E055F94F77
:101C1000E49101301105F9F010F10230110519F1CC
:101C2000DF91CF911F910F91FF90EF900895E09574
:101C30008C91E823CECF81E00115110509F480E0F5
:101C400081959E2F8C932C813D81A20FB31F9850BC
:101C50009830C0F7D7CF8C91E82BEC93E1CFE0958B
:101C60008C91E823FACF8C91E827F7CF013011054A
:101C700009F4ADCFE0F20230110509F4A5CFAE0DA5
:101C8000BF1DAECF0F931F93CF93DF9377FF04C099
:101C9000260F371F70E060E0DC011496CD91DC91D7
:101CA000FB01E20FF31FCE17DF071CF49E01261B7A
:101CB000370B121613064CF5FA0157FD3796A3E0C1
:101CC000F595E795AA95E1F7EC9FD001ED9FB00D52
:101CD000FC9FB00D11246A0F7B1FDC015F96ED9114
:101CE000FC91E60FF71F4770552781E090E001C097
:101CF000880F4A95EAF7482F0130110559F0A8F0EE
:101D00002E0F3F1F02301105E1F0DF91CF911F919F
:101D10000F9108952E0F3F1FE217F307B1F3819142
:101D2000DF011197842B8C93F7CF80952E0F3F1FE7
:101D3000E217F30751F39191DF01119798239C93D8
:101D4000F7CFE217F30709F38191DF011197842799
:101D50008C93F7CF0F931F93FA01DC0156964C91A9
:101D600056974230E9F04330A1F1413061F51496C5
:101D70004D915C91DA01AE1BBF0BFD01E21BF30B31
:101D800077FD0BC0DC0116964D915C9164177507C9
:101D900024F4AB01BF010E94420E1F910F910895E0
:101DA00014964D915C91DA01A61BB70BBD016150F1
:101DB0007109DC0116964D915C91DA01AE1BBF0BE7
:101DC000FD01E21BF30B77FDE8CFAF010E94930DFD
:101DD000E4CF16964D915C91DA01A61BB70BBD01BD
:101DE00061507109CDCF0F931F93FA01DC01569614
:101DF0004C9156974230A9F0433091F1413019F59A
:101E000014964D915C91DA01AE1BBF0BFD01319729
:101E1000F7FD04C0AB01BF010E94930D1F910F910C
:101E2000089514964D915C91DA01A61BB70BBD0184
:101E3000DC0116964D915C91DA01AE1BBF0BFD01E2
:101E40003197621B730BF7FDE9CFDC0116964D91BC
:101E50005C91E417F50714F7AF010E94420EDECF44
:101E600016964D915C91DA01A61BB70BBD01621B62
:101E7000730BCECFFC0177FD64C080859185681718
:101E800079070CF05EC057FD5CC0828593854817CA
:101E900059070CF056C086898230B1F0833029F1A1
:101EA000813041F484819581841B950BAB01BC0189
:101EB000615071092130310509F108F443C0223025
:101EC000310509F463C0089584819581DC01A61B66
:101ED000B70BBD016150710986819781DC01A41B9C
:101EE000B50BAD0141505109E5CF86819781861B25
:101EF000970BBA01AC0141505109DCCFCA0157FD23
:101F00000796A3E095958795AA95E1F7A481B581F9
:101F10008A9F90018B9F300D9A9F300D1124620F84
:101F2000731F078CF0A1E02DE60FF71F47705527B0
:101F300021E030E001C0220F4A95EAF78081822B30
:101F400080830895CA0157FD079633E095958795DC
:101F50003A95E1F7A481B5818A9F90018B9F300D5E
:101F60009A9F300D1124620F731F078CF0A1E02D92
:101F7000E60FF71F4770552781E090E001C0880FFA
:101F80004A95EAF7809590818923DACFCA0157FDF7
:101F9000079623E0959587952A95E1F7A481B58169
:101FA0008A9F90018B9F300D9A9F300D1124620FF4
:101FB000731F078CF0A1E02DE60FF71F4770552720
:101FC00021E030E001C0220F4A95EAF780818227A4
:101FD000B7CF08958EBD00000DB407FEFDCF8EB5BE
:101FE00008958CBD9DBD08950895FC016370668BB6
:101FF0008481958126813781613039F0633029F001
:102000009187808733872287089531872087938738
:10201000828708952F923F924F925F926F927F92A4
:102020008F929F92AF92BF92CF92DF92EF92FF92E8
:102030000F931F93CF93DF93CDB7DEB76A970FB699
:10204000F894DEBF0FBECDBF9A8F898F7A836983E4
:102050004A01D22E18870F833701BC2CDC01599618
:102060002D913C915A972115310509F015C118960B
:102070008D919C911997681779070CF0D7C11A9622
:102080008D919C91481759070CF0D0C14C2C512CC4
:10209000B6E0CB9E600D711D11247C876B871616F0
:1020A00017060CF0C3C1EA2DF0E0FA87E98793E048
:1020B000EE0FFF1F9A95E1F7F88BEF87CF01840FA2
:1020C000951F181619060CF0B1C1A98DBA8D589636
:1020D0008C91811104C0BFEABD1508F4D394A98D79
:1020E000BA8DED91FC9111970284F385E02DCD011D
:1020F0001995B5E0DB9EC0011124E981FA81FC83CA
:10210000EB83312C212C9C0120553E4F388F2F8B97
:102110004A2D50E05E8B4D8BEF89F88DE20DF31D5B
:1021200044919E828D82D12CC12C69817A81620D6D
:10213000731D7A8B698B842F90E09C8B8B8BE98D40
:10214000FA8DA081B18140FF82C0F1E0BF126FC063
:10215000AF126DC01C96ED91FC912F813885A401C2
:102160004C0D5D1D69897A89898D9A8D1995EB8948
:10217000FC89F595E7954E2F5FEFC51AD50A6D815D
:102180007E818D899E89680F791F7E836D8398E09B
:10219000C916D10481F6AFEF2A1A3A0AEB81FC8105
:1021A000E40DF51DFC83EB83F5E02F16310409F0F7
:1021B000B3CF2F81388526153705B9F0A98DBA8D93
:1021C000ED91FC91B1E0BB1257C0AB1255C06981D3
:1021D0007A816B5F7F4F0088F189E02D830128E0D1
:1021E00030E0A401898D9A8D1995A98DBA8DED9154
:1021F000FC9111970688F789E02DCD016A960FB6FC
:10220000F894DEBF0FBECDBFDF91CF911F910F912C
:10221000FF90EF90DF90CF90BF90AF909F908F9006
:102220007F906F905F904F903F902F9019941E96E3
:10223000ED91FC91EF80F88409851A8592014D811A
:102240005E816B817C81898D9A8D199590CF2F81CC
:1022500038852615370509F48ACF31E0B31207C057
:10226000A31205C01C96ED91FC91930178CF1E96A8
:10227000ED91FC917301E0CF6B857C856419750944
:102280000684F785E02D73010F8518899201A4015A
:10229000898D9A8D1995A9CFF90134969491329729
:1022A00045915491D91AB7E0DB9E400D511D112480
:1022B000F901259134913C8B2B8BFA0125903490B8
:1022C000FA013296749031963491398B329664903B
:1022D0003196449041E04C1518F04A1508F07FC043
:1022E000662D062C000C770B7C836B83842D042CCD
:1022F000000C990B9E838D83A98DBA8DED91FC9175
:1023000011970284F385E02DCD011995512CD12C24
:10231000C12CEA2DF0E0FA87E9872B2D30E03C87CD
:102320002B87A401440D511D47FC5A95588F4F8BA4
:1023300069817A81660D711D67FC7A957E876D874C
:102340007989C71608F051CF2C2D30E04D815E8180
:10235000420F531FA985BA854A9FC0014B9F900D1C
:102360005A9F900D1124FC01E80DF91DF88BEF87A1
:10237000852D612C4F89588D420F531F5E8B4D8BDD
:10238000671408F050C044244394480E877041F409
:10239000C1010196EB89FC89E20DF31DD4901C016B
:1023A000D7FE19C0A98DBA8DED91FC91662D70E014
:1023B000B1E0BB1219C0AB1217C02D853E85620F6C
:1023C000731F0484F585E02D2F8138854D895E8942
:1023D000898D9A8D1995DD0C6394842DD1CF1E8241
:1023E0001D821C821B8288CF4B815C81640F751F0C
:1023F000AB85BC856A9FC0016B9F900D7A9F900D45
:10240000112469817A81680F791F0684F785E02D90
:10241000EF80F88409851A859D014F855889898D3B
:102420009A8D1995D8CF570CC3948ACF6A960FB658
:10243000F894DEBF0FBECDBFDF91CF911F910F91FA
:10244000FF90EF90DF90CF90BF90AF909F908F90D4
:102450007F906F905F904F903F902F9008958F9254
:102460009F92AF92CF92EF92FF920F931F93CF93D1
:10247000DF93EC01262F898D9A8D009709F051C0CA
:102480006A30D1F41D861C868D8948E0849F9001B6
:1024900011248E859F85820F931F9F878E8781E0F1
:1024A00090E0DF91CF911F910F91FF90EF90CF902F
:1024B000AF909F908F9008956D3089F3CC88AD8850
:1024C0008F898823C1F08C859D8536E0C39E800D61
:1024D000911D1124488559854817590764F44E8584
:1024E0005F851D861C8638E0A39EC0011124840FE1
:1024F000951F9F878E87EA88FB88088919894E85F2
:102500005F856C857D85CE010E940A102C898C85A3
:102510009D8546E0249F800D911D11249D878C8709
:10252000BECF6A3069F41D861C86FC013896E491A2
:102530002D898E859F85E29F800D911D1124ADCF41
:102540006D3009F4ACCFFC0134963491631708F474
:10255000A6CF3296E491E61708F4A1CFFC0132969B
:1025600085909490462F431B342F47E0349F800C76
:10257000911C1124F401329634913196E491332365
:10258000A9F1EE2399F1CC88F4013596E491AD8858
:102590004F89442301F10E2E000CFF0BE30FF11DB8
:1025A000CE9EA001CF9E500D11246C857D85460FD7
:1025B000571F68857985641775076CF44E855F85AC
:1025C0001D861C86FC013896E491AE9E400D511D7F
:1025D00011245F874E87EA88FB88088919894E8510
:1025E0005F856C857D85CE010E940A10F4013496CA
:1025F000E4912C898C859D85E29F800D911D11248D
:102600008DCF6F927F928F929F92AF92BF92CF9217
:10261000DF92EF92FF920F931F93CF93DF93EC0122
:102620006B015A0139014801E881F9810284F3857F
:10263000E02D1995E881F9810288F389E02D870161
:102640009301A501B601CE011995A501480D591DAB
:1026500041505109E881F9810288F389E02D930105
:10266000B601CE011995E881F9810088F189E02D44
:102670009401A501B601CE011995C60CD71CB6016F
:1026800061507109E881F9810088F189E02D940198
:10269000A501CE011995E881F9810688F789E02D19
:1026A000CE01DF91CF911F910F91FF90EF90DF90BE
:1026B000CF90BF90AF909F908F907F906F90199424
:1026C0006F927F928F929F92AF92BF92CF92DF9242
:1026D000EF92FF920F931F93CF93DF935C01EB0177
:1026E0006A01490138018701DC01ED91FC91621713
:1026F000730719F5641675062CF0962D872D3A018F
:10270000C92ED82E9601261937092F5F3F4F048C0A
:10271000F58DE02DA301BE01C5011995DF91CF9183
:102720001F910F91FF90EF90DF90CF90BF90AF90EF
:102730009F908F907F906F9008954615570591F464
:102740002617370724F0892D4B01C22FD82F9E0161
:10275000281939092F5F3F4F068CF78DE02DA60110
:10276000B401DACF0284F385E02D1995D501ED91FE
:10277000FC910488F589E02D83019401A601BE0136
:10278000C5011995D501ED91FC910688F789E02DD9
:10279000C501DF91CF911F910F91FF90EF90DF90D6
:1027A000CF90BF90AF909F908F907F906F90199433
:1027B000EF92FF920F931F93DC011A960D911C91DB
:1027C0001B9718962D913C911997ED91FC9100A0C3
:1027D000F1A1E02D7B0150E040E070E060E0199550
:1027E0001F910F91FF90EF9008954F925F926F921B
:1027F0007F928F929F92AF92BF92CF92DF92EF9291
:10280000FF920F931F93CF93DF936C012B015A011B
:1028100039014801DC01ED91FC910284F385E02D42
:102820001995E201640C751CD601ED91FC91C61559
:10283000D7055CF40088F189E02D87019401A5019A
:10284000BE01C60119952196EFCF0688F789E02DC4
:10285000C601DF91CF911F910F91FF90EF90DF9014
:10286000CF90BF90AF909F908F907F906F905F9030
:102870004F9019948F929F92AF92BF92CF92DF9216
:10288000EF92FF920F931F93CF93DF93EC015B01C5
:102890004A016901E881F9810284F385E02D1995E7
:1028A00095012C0D3D1D21503109E881F9810488E5
:1028B000F589E02D78018401A401B501CE011995B7
:1028C000E881F9810688F789E02DCE01DF91CF916B
:1028D0001F910F91FF90EF90DF90CF90BF90AF903E
:1028E0009F908F9019948F929F92AF92BF92CF92A8
:1028F000DF92EF92FF920F931F93CF93DF93EC0140
:102900005B014A0169017801E881F9810284F3855C
:10291000E02D1995C80CD91C860101501109E881D8
:10292000F9810488F589E02D9501A401B501CE0156
:102930001995E881F9810688F789E02DCE01DF91AC
:10294000CF911F910F91FF90EF90DF90CF90BF90AC
:10295000AF909F908F901994EF92FF920F931F93D7
:10296000DC01ED91FC9100A0F1A1E02D19951F91E2
:102970000F91FF90EF9008950F931F93DC01ED915D
:10298000FC91068CF78DE02D19951F910F910895FC
:102990000F931F93DC01ED91FC91048CF58DE02DDC
:1029A00019951F910F910895DC01ED91FC91008420
:1029B000F185E02D19943F924F925F926F927F9232
:1029C0008F929F92AF92BF92CF92DF92EF92FF923F
:1029D0000F931F93CF93DF935C017B014A01690141
:1029E000390187E0680E711C93E0759467949A959D
:1029F000E1F72B01400E511E10E000E0312CD0E039
:102A0000C0E0CE0187709927330C892B59F4FE0161
:102A100083E0F595E7958A95E1F7E00FF11FE80D62
:102A2000F91D349037FE0AC021E030E0A701B5015E
:102A30006C0F7D1F83E796E00E94D4142196CC167C
:102A4000DD06F9F68FEFE81AF80A060D171DE414F3
:102A5000F504A9F6DF91CF911F910F91FF90EF90B0
:102A6000DF90CF90BF90AF909F908F907F906F90AE
:102A70005F904F903F9008952F923F924F925F92B8
:102A80006F927F928F929F92AF92BF92CF92DF927E
:102A9000EF92FF920F931F93CF93DF9300D000D05C
:102AA000CDB7DEB73C016A013E832D83FC82EB8209
:102AB0005801A41AB50AB7FE03C0B194A194B10895
:102AC0008D809E80861A970A97FE03C09194819408
:102AD00091088A149B045CF0902F812F0D811E8138
:102AE0009D838E839C2D8D2D6B01692F782F0C1566
:102AF0001D055CF09D818E817E836D83692F782F0B
:102B0000902F812F8601C92ED82E1601201A310A46
:102B10002B012D813E81421A530A57FE03C0519466
:102B200041945108710137FE03C03FEFE31AF30AE5
:102B3000F594E7948D819E81861797075CF5A1E057
:102B4000B0E0BA83A983C016D1064CF1D301ED9150
:102B5000FC910484F585E02D2B813C81A8016D81D9
:102B60007E818A149B041CF04D815E81B801C301F3
:102B70001995E418F508F7FE0AC02D813E81898178
:102B80009A81280F391F3E832D83E20CF31C0F5FBF
:102B90001F4FD9CF2FEF3FEF3A832983D4CF26960B
:102BA0000FB6F894DEBF0FBECDBFDF91CF911F915E
:102BB0000F91FF90EF90DF90CF90BF90AF909F90DC
:102BC0008F907F906F905F904F903F902F900895DF
:102BD000089520915A04260F3327331F21323105DF
:102BE000ECF420917E04FC0190E080E0243069F058
:102BF00082E00895A0915A042191AC01465C5B4F9C
:102C0000A40FB52FB11D2C930196861798F38091D0
:102C10005A04680F60935A0480E0089581E0089593
:102C200010927E0481E08093800410927F0461E022
:102C300084E10E94AF0761E085E10E94AF07E9EB04
:102C4000F0E080818E7F808380818D7F808388E427
:102C50008093B80085E48093BC000895CF93DF9300
:102C600091E0909339048823B9F0C091B800D091D5
:102C7000BA008091BC008A7B8093BC0060E084E154
:102C80000E94AF0760E085E10E94AF070E94101626
:102C9000D093BA00C093B800DF91CF910895E0912E
:102CA000AE048091AD04E81730F4F0E0EC5EFB4F29
:102CB000808190E008958FEF9FEF08959091AE048A
:102CC0008091AD042FEF3FEF981748F4E92FF0E023
:102CD000EC5EFB4F208130E09F5F9093AE04C90112
:102CE00008958091AD049091AE04891B990B0895CD
:102CF000CF92DF92EF92FF920F931F93CF93DF93C8
:102D00007C01CB018A0120911805222389F0EB0177
:102D10006B01C40ED51ECC15DD0569F06991D70194
:102D2000ED91FC910190F081E02DC7011995F3CF51
:102D3000642F0E94E915C801DF91CF911F910F9177
:102D4000FF90EF90DF90CF900895CF93DF931F9285
:102D5000CDB7DEB76983209118052223F9F02091C1
:102D60001505203258F021E030E0FC013383228346
:102D700090E080E00F90DF91CF910895809116054B
:102D8000E82FF0E0EC50FC4F998190838F5F8093A7
:102D900016058093150581E090E0ECCF61E0CE014F
:102DA00001960E94E915F7CFCF92DF92EF92FF9242
:102DB0000F931F93CF93DF93D091150581E0D1320C
:102DC00008F09CC0C09117050E94EE096B017C01C0
:102DD00080917E0481116CC082E080937E0481E04A
:102DE000809380048FEF80937D041092A204D0938F
:102DF000A104A4EFB3E0E1E8F4E080E0D8138DC0D3
:102E00001092A3048091A304CC0FC82BC093A304F9
:102E100080917F04813009F084C010927F040E9469
:102E2000EE096B017C018091A3048093BB0080912B
:102E3000350490913604A0913704B0913804892B61
:102E40008A2B8B2BA1F00E94EE0900913504109182
:102E5000360420913704309138046C197D098E09AD
:102E60009F09061717072807390708F442C0809101
:102E7000BC0083FDD8CF85EC8093BC000E94EE0996
:102E80006B017C0180917E04823009F44CC08091FA
:102E90007D048F3F09F469C080917D04803209F47C
:102EA00066C080917D04803309F463C084E026C04D
:102EB0008091350490913604A0913704B091380484
:102EC000892B8A2B8B2B09F483CF0E94EE0900916A
:102ED00035041091360420913704309138046C1970
:102EE0007D098E099F09061717072807390708F07B
:102EF0006FCF809134040E942E1685E01092160543
:102F00001092150510921805DF91CF911F910F9126
:102F1000FF90EF90DF90CF9008959D9191938F5FF8
:102F20006DCF85EEA9CF8091350490913604A091A4
:102F30003704B0913804892B8A2B8B2B09F4A2CF4C
:102F40000E94EE0900913504109136042091370457
:102F5000309138046C197D098E099F0906171707EF
:102F60002807390708F08ECFC4CF80E0C7CF82E0B2
:102F7000C5CF83E0C3CFEF92FF920F931F93CF9300
:102F8000DF937C01C62F8091900690919106009767
:102F900009F459C02091940631E03093180520932C
:102FA00017051092160510921505DC01ED91FC91A4
:102FB0000190F081E02D60E019958701EE24E39403
:102FC000F12CD1E0C1508091900690919106CF3FB5
:102FD00091F1B0E2EB16F104D8F00E94D416809182
:102FE00090069091910620919406D0931805209315
:102FF00017051092160510921505DC01ED91FC9154
:103000000190F081E02D60E01995EE24E394F12C1D
:103010008091900690919106F8016491DC01ED9108
:10302000FC910190F081E02D1995BFEFEB1AFB0A9E
:103030000F5F1F4FC7CFDF91CF911F910F91FF906F
:10304000EF900C94D416E091A006F091A106908127
:103050008091A6068095892380838701C15008F45A
:1030600038C0F801849120918E0630918F06232B71
:1030700029F00E94EA0F0F5F1F4FF0CF28E030E0E9
:1030800040E8E0919C06F0919D069091A406582F8F
:103090005423D9F05081952B9083E0919E06F091B6
:1030A0009F0690815091A506952B9083E0919E06F6
:1030B000F0919F0650819091A5069095952390835D
:1030C000469521503109E9F6D6CF50819095952348
:1030D000E3CFDF91CF911F910F91FF90EF90089573
:1030E0001F93CF93DF93EC018D8D9E8D009721F17F
:1030F000162F29A131E0309318052093170510925F
:10310000160510921505DC01ED91FC910190F081FE
:10311000E02D60E019958D8D9E8DDC01ED91FC9187
:103120000190F081E02D612F19958D8D9E8DDF919D
:10313000CF911F910C94D416ADA5BEA59C918BA9DF
:10314000809589238C938B8D9C8D892B31F0862FD4
:10315000DF91CF911F910C94EA0F28E030E080E8D6
:10316000A9A5BAA599A9462F4823C1F04C91942B43
:103170009C93ABA5BCA59C914AA9942B9C93ABA511
:10318000BCA54C919AA9909594239C938695215027
:10319000310931F7DF91CF911F9108954C919095AE
:1031A0009423E6CFDF92EF92FF920F931F93CF937A
:1031B000DF938091900690919106892B09F4A5C028
:1031C0002091A8063091A9064091AA065091AB061D
:1031D00060E074E284EF90E00E94083020513109F1
:1031E0004109510956954795379527952093B80081
:1031F00064E08CEE9BE00E94BB1780917706909173
:1032000078068034910509F097C060E283E796E084
:103210000E94701860917706615E83E796E00E94D5
:1032200070182091790630917A06C901079697FDAA
:10323000079633E0959587953A95E1F720917706C3
:1032400030917806829F8001839F100D929F100D10
:103250001124C0919206D09193068091900690918E
:1032600091060C0F1D1F009709F498C02091940639
:1032700031E030931805209317051092160510922F
:103280001505DC01ED91FC910190F081E02D60E4E9
:103290001995EE24E394F12CDD24D39480919006CB
:1032A000909191060C171D0709F44FC0B0E2EB1680
:1032B000F104D8F00E94D416809190069091910666
:1032C00020919406D09218052093170510921605A8
:1032D00010921505DC01ED91FC910190F081E02D3B
:1032E00060E41995EE24E394F12C8091900690917E
:1032F00091066991DC01ED91FC910190F081E02D46
:103300001995BFEFEB1AFB0AC9CF80918E069091F9
:103310008F06892B31F08091B1069091B2060E9400
:10332000F10FE091A206F091A30690818091A7068B
:103330008095892380835CCF60E083E796E00E94DC
:10334000701860917706615068CF0E94D416809102
:10335000900690919106892B09F461C02091AC06EA
:103360003091AD064091AE065091AF0660E074E238
:1033700084EF90E00E940830205131094109510941
:1033800056954795379527952093B800DF91CF91B3
:103390001F910F91FF90EF90DF900895E091A006AC
:1033A000F091A10680819091A606892B80830C174D
:1033B0001D0769F2899120918E0630918F06232B8B
:1033C00019F00E94EA0FF3CF28E030E040E8E091E6
:1033D0009C06F0919D069091A406582F5423D9F095
:1033E0005081952B9083E0919E06F0919F069081ED
:1033F0005091A506952B9083E0919E06F0919F0633
:1034000050819091A50690959523908346952150E3
:103410003109E9F6CCCF508190959523E3CFE09127
:10342000A206F091A30680819091A706892B808344
:10343000ADCF1F93CF93DF93EC01162F8D8D9E8D13
:10344000892BB1F12DA93EA94FA958AD60E074E2D6
:1034500084EF90E00E940830205131094109510960
:1034600056954795379527952093B80066EA111130
:1034700067EACE010E9470188D8D9E8D892B41F1D7
:1034800029AD3AAD4BAD5CAD60E074E284EF90E005
:103490000E9408302051310941095109569547953C
:1034A000379527952093B800DF91CF911F9108950C
:1034B0008B8D9C8D892B21F08EAD9FAD0E94F10FDD
:1034C000EFA5F8A990818CA9809589238083CECF20
:1034D000EFA5F8A980819CA9892B8083E5CF90E096
:1034E00080E00895CF92DF92EF92FF92CF93DF9327
:1034F0006B017C0120E030E048E052E40E9447315B
:10350000181654F020E030E040E850E4C701B6015E
:103510000E94AF2E87FF0CC08091F2049091F304BB
:1035200001969093F3048093F20482E090E020C02F
:10353000C091F404D091F504CC30D1056CF720E0B3
:1035400030E040EF51E4C701B6010E944731181640
:10355000B4F020E030E040EE50E4C701B6010E9434
:10356000AF2E87FD0CC081E090E028970CF480E03E
:10357000DF91CF91FF90EF90DF90CF90089581E0A1
:10358000D5CF8091EA0481111AC08AE590E00E94AB
:1035900081060E94450A6093E6047093E7048093D5
:1035A000E8049093E90481E08093EA048091F404B4
:1035B0009091F50401969093F5048093F404089596
:1035C000CF92DF92EF92FF92CF93DF936B017C015A
:1035D0008091B3049091B404D1E08230910569F0F8
:1035E000019751F0D1E020E030E040ED51E4C70117
:1035F0000E94473118160CF0D0E08091B1049091F0
:10360000B204C1E08230910569F0019751F0C1E048
:1036100020E030E040E251E4C701B6010E94AF2E45
:1036200087FFC0E06D2F8BE10E94AF076C2F8CE10C
:10363000DF91CF91FF90EF90DF90CF900C94AF0788
:10364000CF932091AF043091B004C1E02230310516
:1036500041F02130310521F00697C1E00E9708F0C6
:10366000C0E06C2F8DE10E94AF076C2F8EE10E94AD
:10367000AF076C2F8FE1CF910C94AF07CF93DF93FF
:10368000EC019093ED048093EC0461E0029709F063
:1036900060E087E10E94AF0761E0209709F060E0F9
:1036A00088E10E94AF0761E0C130D10509F060E018
:1036B00089E10E94AF07209729F48AE1DF91CF9139
:1036C0000C94590B80E293E0219711F084EC99E07F
:1036D000DF91CF910C940E082091060230910702E1
:1036E00037FFC9010C943E1B1092B4041092B3042E
:1036F0001092B2041092B1041092B0041092AF0470
:103700008FEF9FEF909307028093060290E080E096
:103710000E943E1B80910A0290910B020E94201B86
:1037200060910C0270910D0280910E0290910F0237
:103730000C94E01A2091790630917A06C901079617
:1037400097FD079623E0959587952A95E1F72091B7
:10375000770630917806829FA001839F500D929F3B
:10376000500D112470E060E08091920690919306D4
:103770000C94A9330E949333AF92BF92CF92DF9201
:10378000EF92FF920F931F93CF93DF93DC01CD90C5
:10379000DC901197C114D10439F01496CD91DC91CD
:1037A0008C017601209761F4DF91CF911F910F91E9
:1037B000FF90EF90DF90CF90BF90AF90089575018C
:1037C0005701BFEFAB1ABB0AF7018081082E000C2E
:1037D000990B0E94A62E892B91F72197CC0DDD1D08
:1037E0008881082E000C990B0E94A62E892B29F0A7
:1037F000CE15DF0510F02197F3CFAE014F5F5F4F7D
:103800004E195F09D80115965C934E931497CE1408
:10381000DF0420F4B701C6010E94A033D801ED9166
:10382000FC91119714968D919C91E80FF91F1082CD
:10383000BBCFCF93DF93FC01C081D181209761F092
:103840008991882349F0082E000C990B0E94983327
:10385000FE0131978083F4CFDF91CF910895FB0172
:1038600044815581FC01248135812417350778F086
:1038700080819181009759F0FB0160817181611510
:10388000710529F00E94C03321E0892B09F020E066
:10389000822F0895FC0124813581232B39F421E006
:1038A000FB018081882349F020E007C0808191815D
:1038B0000E94B03321E0892BB9F7822F0895CF936E
:1038C000DF93EC010E94BC1BCE010E94191C6BE629
:1038D00072E0CE010E944A1C81110EC06EE672E0B9
:1038E000CE010E944A1C21E090E0811101C020E03D
:1038F000822FDF91CF91089582E090E0FACFFB0113
:1039000001900020E9F73197AF01461B570BDC010E
:10391000ED91FC910280F381E02D19948F929F929A
:10392000AF92BF92EF92FF920F931F93CF93DF93CB
:10393000CDB7DEB7A1970FB6F894DEBF0FBECDBFEF
:103940007C01FA01CB0119A2223008F42AE08E0191
:103950000F5D1F4F822E912CB12CA12CBF01A50110
:1039600094010E940830F901CA016A300CF5605DCB
:10397000D8016E938D01232B242B252B79F790E012
:1039800080E0109721F0BD01C7010E947F1CA19625
:103990000FB6F894DEBF0FBECDBFDF91CF911F9160
:1039A0000F91FF90EF90BF90AF909F908F900895F0
:1039B000695CDECFCF92DF92EF92FF920F931F935D
:1039C000CF93DF936B01770FEE08FF08F7FE1BC064
:1039D000EC016DE20E949E0B8C0144275527BA0131
:1039E0004C195D096E097F092AE0CE010E948E1CE8
:1039F000800F911FDF91CF911F910F91FF90EF905A
:103A0000DF90CF9008952AE0B701A601DF91CF9112
:103A10001F910F91FF90EF90DF90CF900C948E1C30
:103A20002F923F924F925F926F927F928F929F92CE
:103A3000AF92BF92CF92DF92EF92FF921F93CF93FC
:103A4000DF93EC016A017B01722EAB019601CB0181
:103A5000B6010E944C3162E772E0811126C0460136
:103A60005701E894B7F82FEF3FEF4FE75FE7C50145
:103A7000B4010E944C3181110CC02FEF3FEF4FE792
:103A80005FE7C501B4010E94AF2E66E772E0181629
:103A900064F02FEF3FEF4FE75FE4C701B6010E94EC
:103AA00047311816B4F46AE772E0CE01DF91CF9186
:103AB0001F91FF90EF90DF90CF90BF90AF909F90BD
:103AC0008F907F906F905F904F903F902F900C94CD
:103AD0007F1C2FEF3FEF4FE75FECC701B6010E945D
:103AE000AF2E87FDE0CF20E030E0A901C701B6018D
:103AF0000E94AF2E312C212C87FF09C06DE2CE0130
:103B00000E949E0B1C01F7FAF094F7F8F09410E075
:103B100060E070E080E09FE3711641F020E030E06B
:103B200040E251E40E94A6301F5FF6CFA701960144
:103B30000E943A302B013C010E9418314B015C017C
:103B40002AE0BC01A401CE010E948E1C7C01E20C83
:103B5000F31C1123C1F1C501B4010E94B42E9B01D5
:103B6000AC01C301B2010E9439304B015C016EE22D
:103B7000CE010E949E0BE80EF91E115020F120E0AC
:103B800030E040E251E4C501B4010E94152F2B0141
:103B90003C010E9418314B01B12CA12C2AE0B50147
:103BA000A401CE010E948E1CE80EF91EC501B401CD
:103BB0000E94B42E9B01AC01C301B2010E943930B6
:103BC0004B015C01DACFC701DF91CF911F91FF90CC
:103BD000EF90DF90CF90BF90AF909F908F907F90AD
:103BE0006F905F904F903F902F90089561157105F1
:103BF00011F00C947F1C90E080E0089560E972E081
:103C000089E395E00E94F61D40910C0250910D024F
:103C100060910E0270910F0221E089E395E00E940D
:103C2000101D69E972E089E395E00E94F61D40915C
:103C3000100250911102609112027091130220E063
:103C400089E395E00E94101D61EA72E089E395E046
:103C50000E94F61D8091EC049091ED046EE772E0F5
:103C60008130910531F06DE872E0029711F466E859
:103C700072E089E395E00E94F61D6CEA72E089E348
:103C800095E00E94F61D8BE10E948607BC0189E346
:103C900095E00E94DA1C65EB72E089E395E00E94F2
:103CA000F61D8CE10E948607BC0189E395E00E9425
:103CB000DA1C6EEB72E089E395E00E94F61D8DE15F
:103CC0000E948607BC0189E395E00E94DA1C68EC3B
:103CD00072E089E395E00E94F61D60910A027091FE
:103CE0000B0289E395E00E94DA1C61ED72E089E342
:103CF00095E00E94F61D6091FE047091FF0489E337
:103D000095E00E94DA1C6AED72E089E395E00E947A
:103D1000F61D6091F4047091F50489E395E00E942A
:103D2000DA1C63EE72E089E395E00E94F61D609173
:103D3000F2047091F30489E395E00E94DA1C6BEEC3
:103D400072E089E395E00E94F61D6091EA0470E05C
:103D500089E395E00E94DA1C69EF72E089E395E05F
:103D60000E94F61D609100027091010289E395E0C6
:103D70000E94DA1C66E073E089E395E00E94F61D7C
:103D80008091B3049091B4046BE672E082309105A7
:103D900031F06EEB73E0019711F46EE672E089E3A7
:103DA00095E00E94F61D63E173E089E395E00E94CF
:103DB000F61D8091B1049091B2046BE672E08230FE
:103DC000910531F06EEB73E0019711F46EE672E04D
:103DD00089E395E00E94F61D62E273E089E395E0D5
:103DE0000E94F61D8091AF049091B0046BE672E0E2
:103DF0008230910531F06EEB73E0019711F46EE6BD
:103E000072E089E395E00E94F61D62E373E089E3C6
:103E100095E00E94F61D80910602909107026EEBDC
:103E200073E097FD0BC06EE772E08130910531F0D1
:103E30006DE872E0029711F466E872E089E395E0BC
:103E40000E94F61D62E473E089E395E00E947F1C06
:103E500065E473E089E395E00C947F1C0F931F9356
:103E6000CF93DF93EC0188819981009759F02A81E3
:103E70003B812617370730F081E0DF91CF911F910A
:103E80000F9108958B016F5F7F4F0E94B2320097B0
:103E900059F0998388831B830A832C813D81232BCE
:103EA00059F7FC011082E8CF80E0E7CFCF93DF9392
:103EB000EC0188819981009711F00E9429321982C2
:103EC00018821D821C821B821A82DF91CF91089575
:103ED000EF92FF920F931F93CF93DF938C017B019F
:103EE0006115710561F0EB0109900020E9F7219758
:103EF000C61BD70BBE010E942E1F81110BC0C8012B
:103F00000E94561FC801DF91CF911F910F91FF9022
:103F1000EF900895F801D583C483B7018081918122
:103F20000E94B933EFCFEF92FF920F931F93CF937D
:103F3000DF93EC017B01198218821B821A821D8299
:103F40001C82FB0101900020E9F731978F01061BCD
:103F5000170BB8010E942E1F811109C0CE01DF91FD
:103F6000CF911F910F91FF90EF900C94561F1D83DE
:103F70000C83B70188819981DF91CF911F910F91B7
:103F8000FF90EF900C94B933AF92BF92CF92DF9233
:103F9000EF92FF920F931F93CF93DF935C016B011E
:103FA0007A01DB0114960D911C910417150720F47A
:103FB0008F2D7801042F182F67E473E0C5010E944C
:103FC000931FF601C481D581EC16FD06C8F40C17C9
:103FD0001D0708F4E801D601ED91FC911197EC0F53
:103FE000FD1F108110826D917C916E0D7F1DC501AA
:103FF0000E94681FF60180819181C80FD91F188324
:10400000C501DF91CF911F910F91FF90EF90DF904D
:10401000CF90BF90AF900895FC018081918100976F
:1040200011F00C942932089585ED8093BC008091A5
:10403000350490913604A0913704B0913804079666
:10404000A11DB11D23E0B695A795979587952A9553
:10405000D1F72091BC0024FD03C010927E04089586
:1040600040913504509136046091370470913804C2
:10407000452B462B472B69F30097A105B10541F06D
:104080002AE22A95F1F700C00197A109B109E1CF11
:10409000809134040C942E161F920F920FB60F923B
:1040A00011242F933F938F939F93AF93BF9380914E
:1040B0000D0590910E05A0910F05B091100530915E
:1040C0000C0523E0230F2D3758F50196A11DB11DD6
:1040D00020930C0580930D0590930E05A0930F057A
:1040E000B09310058091110590911205A0911305D0
:1040F000B09114050196A11DB11D809311059093F7
:104100001205A0931305B0931405BF91AF919F9131
:104110008F913F912F910F900FBE0F901F90189588
:1041200026E8230F0296A11DB11DD2CF1F920F9238
:104130000FB60F9211240BB60F922F933F934F930C
:104140005F936F937F938F939F93AF93BF93EF93FF
:10415000FF9380912D0590912E05A0912F05B09190
:104160003005892B8A2B8B2BE1F190911C05E09176
:104170001D05F0911E0580818927808380912D0582
:1041800090912E05A0912F05B091300518161906B3
:104190001A061B069CF480912D0590912E05A09186
:1041A0002F05B09130050197A109B10980932D0524
:1041B00090932E05A0932F05B0933005FF91EF91BA
:1041C000BF91AF919F918F917F916F915F914F912F
:1041D0003F912F910F900BBE0F900FBE0F901F902D
:1041E0001895809114020E94590BE8CF1F920F92EC
:1041F0000FB60F9211240BB60F922F933F934F934C
:104200005F936F937F938F939F93AF93BF93EF933E
:10421000FF9389E395E00E94190CFF91EF91BF9104
:10422000AF919F918F917F916F915F914F913F914E
:104230002F910F900BBE0F900FBE0F901F901895EF
:104240001F920F920FB60F9211240BB60F922F935D
:104250008F939F93EF93FF93E0914905F0914A0567
:104260008081E0914F05F091500582FD1DC0908145
:10427000809152058F5F8F7320915305821741F013
:10428000E0915205F0E0E75CFA4F958F809352057C
:10429000FF91EF919F918F912F910F900BBE0F90F7
:1042A0000FBE0F901F9018958081F2CF1F920F9232
:1042B0000FB60F9211240BB60F922F933F934F938B
:1042C0005F936F937F938F939F93AF93BF93EF937E
:1042D000FF9348E251E064E271E090E080E00E94E8
:1042E000D90CFF91EF91BF91AF919F918F917F91E9
:1042F0006F915F914F913F912F910F900BBE0F9057
:104300000FBE0F901F9018951F920F920FB60F922D
:1043100011240BB60F922F933F934F935F936F939C
:104320007F938F939F93AF93BF93EF93FF9348EA4D
:1043300050E064EA70E083E090E00E94D90CFF91C5
:10434000EF91BF91AF919F918F917F916F915F910D
:104350004F913F912F910F900BBE0F900FBE0F907A
:104360001F9018951F920F920FB60F9211240BB643
:104370000F922F933F934F935F936F937F938F93FE
:104380009F93AF93BF93EF93FF9348E950E064E9A5
:1043900070E082E090E00E94D90CFF91EF91BF9114
:1043A000AF919F918F917F916F915F914F913F91CD
:1043B0002F910F900BBE0F900FBE0F901F9018956E
:1043C0001F920F920FB60F9211240BB60F922F93DC
:1043D0003F934F935F936F937F938F939F93AF938D
:1043E000BF93EF93FF9348E850E064E870E081E00A
:1043F00090E00E94D90CFF91EF91BF91AF919F91F6
:104400008F917F916F915F914F913F912F910F907D
:104410000BBE0F900FBE0F901F9018951F920F921A
:104420000FB60F9211240BB60F922F933F934F9319
:104430005F936F937F938F939F93AF93BF93EF930C
:10444000FF938091B900887F803609F44DC008F051
:1044500040C0883209F4A9C028F5803109F49DC014
:10446000C8F4882309F4FBC0883009F496C0FF9192
:10447000EF91BF91AF919F918F917F916F915F91DC
:104480004F913F912F910F900BBE0F900FBE0F9049
:104490001F901895883109F488C0803241F78093C5
:1044A0007D0414C0803409F49DC040F48033B9F316
:1044B0008833E9F680937D0485ECB0C0803509F43B
:1044C00085C0883509F496C0883489F60E94142086
:1044D000CECF883909F48CC038F5883729F050F4EC
:1044E000883611F0803719F683E080937E041092AD
:1044F0007C0457C0883809F47BC0803919F08038B3
:1045000009F0B5CF80917C04803208F071C0E09151
:104510007C0481E08E0F80937C048091BB00F0E0EE
:10452000E45AFB4F80833DC0803B39F0E0F4803A91
:1045300009F479C0883A09F09ACF84E080937E0428
:1045400010925B0410925A04E091AB04F091AC0419
:10455000199580915A0481110FC081E080935A040B
:1045600010923A0409C0803C09F4A6CF883C09F4B3
:10457000A3CF883B09F07BCFE0915B0481E08E0FF5
:1045800080935B04F0E0E65CFB4F80818093BB008E
:1045900090915B0480915A0429C08091A304809378
:1045A000BB0085EC8093BC0062CF9091A204809107
:1045B000A104981758F5E091A20481E08E0F809332
:1045C000A204F0E0EF57FB4F8081E9CFE091A20415
:1045D00081E08E0F8093A2048091BB00F0E0EF5742
:1045E000FB4F80839091A2048091A1049817C8F298
:1045F00085E8D8CFE091A20481E08E0F8093A204D9
:104600008091BB00F0E0EF57FB4F808380918004E6
:1046100081115CCF81E080937F0484EA8093BC00A9
:1046200010927E0424CF85EC8093BC0010927E040F
:1046300080917C04803230F4E0917C04F0E0E45A14
:10464000FB4F108260917C0470E0E091A904F0912E
:10465000AA048CE594E0199510927C0408CF10927E
:104660007D0434CF10923C0510923B0588EE93E018
:10467000A0E0B0E080933D0590933E05A0933F05F8
:10468000B09340052FE132E030933A05209339058D
:1046900025EC30E0309346052093450524EC30E0CE
:1046A000309348052093470520EC30E030934A05CD
:1046B0002093490521EC30E030934C0520934B05C5
:1046C00022EC30E030934E0520934D0526EC30E08F
:1046D0003093500520934F051092520510925305C8
:1046E000109254051092550510926A0610926906B0
:1046F00080936B0690936C06A0936D06B0936E0644
:1047000081E392E0909368068093670686E1809348
:10471000BB068093BC06E7E6FCE0E491E093BD06AF
:10472000E1E2FCE0E491E093BE0680E89EE3A0E0D5
:10473000B0E08093C3069093C406A093C506B093DF
:10474000C60680916606803308F088C091E0980F15
:10475000909366068093B30690E0FC01EE0FFF1F76
:10476000E80FF91FEA52FA4F88EB9BE092838183AE
:10477000109276061092750620E830E030937806A5
:104780002093770680E490E090937A0680937906F0
:1047900030937C0620937B0690937E0680937D0663
:1047A000109289061092800610927F06109282065F
:1047B0001092810681E080938806809387062FEF10
:1047C0003FEF30938606209385063093840620932E
:1047D000830680938A0610928B0610928D061092A3
:1047E0008C0683E492E09093740680937306109293
:1047F0008F0610928E0687E696E09093910680933E
:10480000900610929306109292068FEF809397066F
:10481000809398068093990680939A0680939B06CE
:1048200080E89AE1A6E0B0E08093A8069093A906FC
:10483000A093AA06B093AB0680EA96E8A1E0B0E0A8
:104840008093AC069093AD06A093AE06B093AF06EE
:1048500080E58093B1061092B20608958FEF8093A1
:10486000B30686CFCF93DF93CDB7DEB72C970FB6C5
:10487000F894DEBF0FBECDBF789484B5826084BD4E
:1048800084B5816084BD85B5826085BD85B5816054
:1048900085BD80916E00816080936E0010928100D2
:1048A000809181008260809381008091810081608D
:1048B000809381008091800081608093800080914E
:1048C000B10084608093B1008091B00081608093DA
:1048D000B00080919100826080939100809191005E
:1048E000816080939100809190008160809390001E
:1048F0008091A10082608093A1008091A1008160DD
:104900008093A1008091A00081608093A00080919D
:104910002101826080932101809121018160809337
:1049200021018091200181608093200180917A0093
:10493000846080937A0080917A00826080937A000C
:1049400080917A00816080937A0080917A008068FB
:1049500080937A001092C10061E087E10E94DD0738
:1049600061E088E10E94DD0761E089E10E94DD07E6
:1049700061E08BE10E94DD0761E08CE10E94DD07D0
:1049800061E08DE10E94DD0761E08EE10E94DD07BC
:1049900061E08FE10E94DD0762E080E20E94DD07B6
:1049A00062E081E20E94DD07E0914905F0914A054D
:1049B00082E08083E0914505F09146051082E09108
:1049C0004705F091480580E1808310925105E09100
:1049D0004D05F0914E0586E08083E0914B05F09106
:1049E0004C05808180618083E0914B05F0914C05FE
:1049F000808188608083E0914B05F0914C05808137
:104A000080688083E0914B05F0914C0580818F7D1B
:104A1000808362E08091BB060E94DD070E94450A08
:104A2000605D7740810991096093BF067093C0066D
:104A30008093C1069093C20687E38093C806809155
:104A4000B306803308F052C061E089E00E94DD07C0
:104A50008091B306282F30E0F901EE0FFF1FE20F1F
:104A6000F31FEA52FA4F9081907C996090831092E4
:104A7000B4061092B5062CE0622F0E945131829F3D
:104A8000B001112430E020E0AB01420F531FFA01C6
:104A9000EE0FFF1FE40FF51FEA52FA4F908196FDCB
:104AA00017C02F5F3F4F2C30310571F7813009F06F
:104AB00060C01092800082E0809381001092850097
:104AC00010928400B19A80916F00826080936F0091
:104AD000E091B3068E2F90E0FC01EE0FFF1FE80F70
:104AE000F91FEA52FA4F80818064808390E080E071
:104AF0000E9481061092AE041092AD041092160529
:104B0000109215050E94101687E59BE09093AC0467
:104B10008093AB0488E59BE09093AA048093A9045A
:104B20008091920690919306892B09F44EC00E94C1
:104B30009A1B2091790630917A06809177069091A0
:104B40007806213231050CF0BFC0B90160527109FD
:104B500077FF02C06F5F7F4F759567958357910907
:104B600097FD019600E210E023E730E042ED56E0C9
:104B7000BEC0823061F41092900080939100109238
:104B800095001092940088BB80937100A1CF833070
:104B900069F41092A00082E08093A1001092A50019
:104BA0001092A40089BB8093720092CF811190CFA4
:104BB0001092200182E08093210110922501109231
:104BC00024018ABB8093730083CF209179063091B2
:104BD0007A06C901079697FD0796B3E095958795E4
:104BE000BA95E1F72091770630917806AC01429FA3
:104BF000C001439F900D529F900D11240E948D3152
:104C00009093930680939206892B09F090CF90E0C1
:104C100080E00E943E1B0E94C11A52E0252E312CDA
:104C20000E94450A2B013C018091080590910905DD
:104C3000A0910A05B0910B050196A11DB11D8093AD
:104C4000080590930905A0930A05B0930B0589E325
:104C500095E00E94030C181619060CF04BC489E36A
:104C600095E00E94E10BE091E5048A3019F08D3067
:104C700009F034C4EE2359F3F0E0EB54FB4F1082FB
:104C800065EB74E0CE0107960E94931FCE01079654
:104C90000E94BC1BCE0107960E94191C8B859C8527
:104CA000892B59F063E573E0CE0107960E944A1CF8
:104CB000882309F415C20E94FE1DCE0107960E94AA
:104CC0000C201092E504C3CFB9016054710977FF3D
:104CD00002C06F5F7F4F759567958255910997FD6B
:104CE000019600E410E022E530E042EB58E09595B3
:104CF00087950E94DB1482E0809395068091900650
:104D000090919106892B09F4E6C08CE38093940678
:104D10001092AE041092AD04109216051092150573
:104D20000E94101687E59BE09093AC048093AB043F
:104D300088E59BE09093AA048093A90480919B0648
:104D400087FD1EC061E00E94DD0761E080919B0647
:104D50000E94AF0761E070E080E090E00E94130ADB
:104D600060E080919B060E94AF076AE070E080E0FF
:104D700090E00E94130A61E080919B060E94AF07B9
:104D80008091900690919106892B09F463C120913E
:104D9000A8063091A9064091AA065091AB0660E0A2
:104DA00074E284EF90E00E940830205131094109FB
:104DB000510956954795379527952093B80064E09B
:104DC0008EEC96E00E94BB1760917906615083E7F4
:104DD00096E00E94701864E08AEC96E00E94BB178F
:104DE0008091950660E1813009F064E183E796E007
:104DF0000E94701864E086EC96E00E94BB178FE872
:104E00008093B0068091770690917806803891055E
:104E100009F037C18091790690917A068034910526
:104E200009F03FC180919506813009F04DC18FE9AD
:104E30008093B00612E16AED83E796E00E94701855
:104E4000612F83E796E00E94701861E883E796E09F
:104E50000E9470186091B00683E796E00E94701877
:104E600069ED83E796E00E9470188091950662E2F2
:104E7000813009F061EF83E796E00E94701866E0E8
:104E800080EC96E00E94BB1780919006909191066D
:104E9000892B09F41BC12091AC063091AD064091DD
:104EA000AE065091AF0660E074E284EF90E00E949D
:104EB00008302051310941095109569547953795D8
:104EC00027952093B80081E08093EB040E949A1B01
:104ED0000E94D2189CCE61E0809199060E94DD0765
:104EE00061E080919A060E94DD0780919906082E64
:104EF000000C990BFC01E55FF34FE491F0E0EE0F3D
:104F0000FF1FE051F44F259134913093A106209377
:104F1000A006FC01EF5AF34FE491E093A6068091BE
:104F20009A06082E000C990BFC01E55FF34FE49103
:104F3000F0E0EE0FFF1FE051F44FA591B491B09354
:104F4000A306A093A206FC01EF5AF34FE491E0936D
:104F5000A7068C91E82BEC9380918E0690918F069A
:104F6000892B09F434C01FB7F8948091A8048111EB
:104F700027C0E0E4FCE08491E6E8FCE09491E82FAF
:104F8000F0E0EE0FFF1FEE58F44FA591B491EC91B5
:104F9000E92321F461E085E30E94AF0761E085E346
:104FA0000E94DD078CB580618CBD8CB580648CBDA2
:104FB00061E084E30E94DD0761E083E30E94DD0796
:104FC0008091A8048F5F8093A8041FBFB7CE61E0D3
:104FD000809197060E94DD0761E0809198060E940B
:104FE000DD0780919706082E000C990BFC01E55F08
:104FF000F34FE491F0E0EE0FFF1FE051F44F2591E5
:10500000349130939D0620939C06FC01EF5AF34F98
:10501000E491E093A40680919806082E000C990B69
:10502000FC01E55FF34FE491F0E0EE0FFF1FE0516C
:10503000F44FA591B491B0939F06A0939E06FC01F6
:10504000EF5AF34FE491E093A5068C91E095E823A5
:10505000EC9374CE80918E0690918F06892B31F05F
:105060008091B1069091B2060E94F10FE091A206E4
:10507000F091A30690818091A70680958923808373
:105080009ECE8036910589F48091790690917A06BA
:10509000409739F480919506813029F480E180931E
:1050A000B00612E0C8CE8FEAFACF80349105C9F776
:1050B0008091790690917A06809799F7809195066C
:1050C000813011F480E1B4CE8FECB2CEE091A20633
:1050D000F091A30680819091A706892B8083F3CE5F
:1050E00067E573E0CE0107960E944A1C882319F0F9
:1050F0000E94C11AE0CD6CE573E0CE0107960E94D4
:105100004A1C882359F00E94741B1092F5041092D7
:10511000F4041092F3041092F204CDCD62E673E031
:10512000CE0107960E944A1C8823E1F08091EC048E
:105130009091ED04029799F48FEF9FEF90930702FF
:105140008093060260910C0270910D0280910E0214
:1051500090910F020E94721A0E946C1BACCD82E0EB
:1051600090E0ECCF67E673E0CE0101960E94931FBA
:10517000BE016F5F7F4FCE0107960E942F1C182F34
:10518000CE0101960E940C20112309F447C0EB8444
:10519000FC8434E0A32EB12C54E0E516F10420F099
:1051A000570144E0E42EF12C67E473E0CE01019650
:1051B0000E94931F0B851C85E016F106C0F4A01613
:1051C000B10608F48501EF81F885E00FF11FB0808A
:1051D00010826F8178856E0D7F1DCE0101960E9431
:1051E000681F8F819885080F191FF801B082CE01C2
:1051F00001960E945F1C9093B4048093B304CE0187
:1052000001960E940C2060910C0270910D02809119
:105210000E0290910F020E94E01A4DCD6CE673E0F1
:10522000CE0101960E94931FBE016F5F7F4FCE019A
:1052300007960E942F1C182FCE0101960E940C2069
:105240001123C9F14AE050E0BE01695F7F4FCE01F2
:1052500001960E94C41F89819A81009741F10E94A2
:105260006A2E8B01362F272F6536710514F034E630
:1052700020E0832F922F97FF02C090E080E0909370
:10528000010280930002CE0101960E940C208091C1
:10529000B3049091B404101611060CF002C50197E6
:1052A00009F0B1CF3092B4042092B304ACCF60E0E7
:1052B00070E0CB01D6CF67E773E0CE0101960E9484
:1052C000931FBE016F5F7F4FCE0107960E942F1C78
:1052D000182FCE0101960E940C20112391F045E079
:1052E00050E0BE01695F7F4FCE0101960E94C41F4E
:1052F000CE0101960E945F1C9093B2048093B1048A
:105300007ECF6DE773E0CE0101960E94931FBE0130
:105310006F5F7F4FCE0107960E942F1C182FCE0182
:1053200001960E940C201123E1F046E050E0BE01FE
:10533000695F7F4FCE0101960E94C41FCE01019686
:105340000E945F1C9093B0048093AF04CE0101963D
:105350000E940C2080910A0290910B020E94201B57
:10536000AACC64E873E0CE0101960E94931FBE01AF
:105370006F5F7F4FCE0107960E942F1C182FCE0122
:1053800001960E940C20112309F457C046E050E01A
:10539000BE01695F7F4FCE0101960E94C41FCE01FE
:1053A00001960E94BC1B6EEB73E0CE0101960E9439
:1053B0004A1C8823C9F04FEF5FEF509307024093D8
:1053C000060260910C0270910D0280910E02909184
:1053D0000F020E94721A0E946C1B0E94FE1DCE01D9
:1053E00001960E940C2069CC6DE872E0CE01019616
:1053F0000E944A1C882329F010920702109206028C
:10540000E0CF6EE772E0CE0101960E944A1C88232D
:1054100039F081E090E09093070280930602D1CFAB
:1054200066E872E0CE0101960E944A1C882349F288
:105430003092070220920602C4CF6BE873E0CE01DF
:1054400001960E94931FBE016F5F7F4FCE010796AA
:105450000E942F1C182FCE0101960E940C201123B0
:1054600011F145E050E0BE01695F7F4FCE0101962A
:105470000E94C41F89819A81812C912C540100972C
:1054800019F00E946A2E4B01CE0101960E940C2059
:1054900098E18916910408F00ECC90920B0280924C
:1054A0000A02C4015BCF61E973E089E395E00E94E1
:1054B000F61D4B855C856F81788589E395E00E94B8
:1054C000A50B62E473E089E395E00E947F1C65E42C
:1054D00073E089E395E00E947F1CEFCBEF3208F088
:1054E000B6CB91E09E0F9093E504F0E0EB54FB4FB8
:1054F0008083ADCB8091EA048823C9F00E94450ADD
:105500000091E6041091E7042091E8043091E90449
:10551000601B710B820B930B6C3D754081059105EF
:1055200030F090E080E00E9481061092EA048091C1
:10553000040590910505A0910605B0910705A3010A
:105540009201281B390B4A0B5B0BDA01C901803D24
:105550009740A105B10508F45DC140920405509241
:10556000050560920605709207050E94510A88237E
:1055700041F08091BC068C3009F463C048F48B3054
:1055800001F1812C912C90ECA92E9FE7B92E43C0FC
:1055900085518230B0F71091B806612F70E0762FF8
:1055A000662766277F778091B906682B90E080E0B8
:1055B0000E94B42E2DEC3CEC4CEC5DE30E94152FC8
:1055C0005CC06091B80670E090E080E00E94B42E6C
:1055D0004B015C011091B90617FF0AC0AC019B0199
:1055E00060E070E080E89FEB0E9439304B015C0185
:1055F0001F70612F70E090E080E00E94B62E2DECCD
:105600003CEC4CEC5DE30E94152FA50194010E9437
:105610003A304B015C010E94510A882309F464C0AE
:105620008091BC068B3030F08D3080F18551823016
:1056300008F4CEC2C12CD12C80ECE82E8FE7F82ED6
:1056400043C01091B806612F70E090E080E00E94A6
:10565000B42E4B015C016091B9066F7070E090E070
:1056600080E00E94B62E2DEC3CEC4CEC5DE30E94F9
:10567000152FA50194010E943A304B015C0117FFE0
:10568000CACFB7FAB094B7F8B094C5CF6091B70657
:1056900070E090E080E00E94B62E2DEC3CEC4CECEB
:1056A0005DE30E94152F6B017C016091B60670E0EE
:1056B00090E080E00E94B62E9B01AC01C701B601CC
:1056C0000E943A306B017C01A7019601C701B60127
:1056D0000E944C31811108C0C0921002D092110278
:1056E000E0921202F0921302C0900C02D0900D02D0
:1056F000E0900E02F0900F02C701B6010E94E01A7E
:10570000A5019401C501B4010E944C31811174C0FE
:105710008092020290920302A0920402B0920502CB
:105720008BE10E948607019709F064C26091000234
:1057300070910102072E000C880B990B0E94B62E67
:1057400020E030E048EC52E40E94A6302DEC3CEC26
:105750004CE45FE30E94152F9B01AC01C701B60129
:105760000E94393060930C0270930D0280930E02F8
:1057700090930F0220E030E040E251EC60910C0287
:1057800070910D0280910E0290910F020E94AF2E37
:1057900087FF0CC080E090E0A0E2B1EC80930C02A7
:1057A00090930D02A0930E02B0930F0220E030E020
:1057B00040E752E460910C0270910D0280910E025C
:1057C00090910F020E944731181664F480E090E037
:1057D000A0E7B2E480930C0290930D02A0930E0216
:1057E000B0930F0260910C0270910D0280910E0235
:1057F00090910F020E94E01A60910C0270910D02CC
:1058000080910E0290910F020E94721A0E946C1BEE
:105810000E94FE1D8091000590910105A091020556
:10582000B0910305A3019201281B390B4A0B5B0BB6
:10583000DA01C901843F9140A105B105C0F1409250
:105840000005509201056092020570920305809157
:105850000A0290910B02019668E170E00E945D31AE
:105860008C0190930B0280930A020E94201B80916E
:105870000802909109020817190769F0C80166E04B
:1058800070E00E945D31892B31F40E94C11A10939F
:105890000902009308020C30110549F48091FE04BE
:1058A0009091FF0401969093FF048093FE048091F1
:1058B000FA049091FB04A091FC04B091FD04A301B3
:1058C0009201281B390B4A0B5B0BDA01C901883E98
:1058D0009340A105B10508F410C14092FA0450921A
:1058E000FB046092FC047092FD048091EB04882319
:1058F00009F403C18091EC049091ED040DE812E0ED
:10590000009731F008E413E0019711F006E812E087
:105910000E949A1B81E0809387068093880641E06D
:1059200050E050938606409385065093840640933A
:1059300083061092800610927F06109282061092C3
:10594000810664EB73E083E796E00E94F61D1092F7
:10595000800610927F068AE090E090938206809302
:1059600081066AE773E083E796E00E94F61D4091A6
:105970000C0250910D0260910E0270910F0221E015
:1059800083E796E00E94101D63EC73E083E796E0E6
:105990000E94F61D40911002509111026091120276
:1059A0007091130220E083E796E00E94101D68ECDE
:1059B00073E083E796E00E94F61D10928006109235
:1059C0007F0684E190E090938206809381066AECE2
:1059D00073E083E796E00E94F61D60910A027091E1
:1059E0000B0283E796E00E94DA1C60ED73E083E728
:1059F00096E00E94F61D8DE10E9486076DE473E03B
:105A0000892B11F460E573E083E796E00E94F61DB0
:105A10001092800610927F068EE190E090938206AD
:105A20008093810666ED73E083E796E00E94F61DA1
:105A30008BE10E9486076DE473E0892B11F460E529
:105A400073E083E796E00E94F61D6BED73E083E759
:105A500096E00E94F61D8CE10E9486076DE473E0DB
:105A6000892B11F460E573E083E796E00E94F61D50
:105A70001092800610927F0688E290E09093820652
:105A80008093810661EE73E083E796E00E94F61D45
:105A90006091FE047091FF0483E796E00E94DA1C97
:105AA00066EE73E083E796E00E94F61D6091F404D1
:105AB0007091F50483E796E00E94DA1C109280064C
:105AC00010927F0686E390E0909382068093810691
:105AD000B80183E796E00E94F61D6DEE73E083E760
